{
  "_format": "hh-sol-artifact-1",
  "contractName": "WavePortal",
  "sourceName": "contracts/WavePortal.sol",
  "abi": [
    {
      "inputs": [],
      "stateMutability": "nonpayable",
      "type": "constructor"
    },
    {
      "anonymous": false,
      "inputs": [
        {
          "indexed": true,
          "internalType": "address",
          "name": "from",
          "type": "address"
        },
        {
          "indexed": false,
          "internalType": "uint256",
          "name": "timestamp",
          "type": "uint256"
        },
        {
          "indexed": false,
          "internalType": "string",
          "name": "color",
          "type": "string"
        }
      ],
      "name": "NewVote",
      "type": "event"
    },
    {
      "inputs": [],
      "name": "getColors",
      "outputs": [
        {
          "components": [
            {
              "internalType": "address",
              "name": "user",
              "type": "address"
            },
            {
              "internalType": "string",
              "name": "color",
              "type": "string"
            },
            {
              "internalType": "uint256",
              "name": "timestamp",
              "type": "uint256"
            }
          ],
          "internalType": "struct WavePortal.ColorVote[]",
          "name": "",
          "type": "tuple[]"
        }
      ],
      "stateMutability": "view",
      "type": "function"
    },
    {
      "inputs": [],
      "name": "getTotalColors",
      "outputs": [
        {
          "internalType": "uint256",
          "name": "",
          "type": "uint256"
        }
      ],
      "stateMutability": "view",
      "type": "function"
    },
    {
      "inputs": [
        {
          "internalType": "string",
          "name": "color",
          "type": "string"
        }
      ],
      "name": "registerColor",
      "outputs": [],
      "stateMutability": "nonpayable",
      "type": "function"
    }
  ],
  "bytecode": "0x608060405234801561001057600080fd5b506100596040518060400160405280601d81526020017f48656c6c6f2c20576f726c6421204920616d206120636f6e747261637400000081525061005e60201b61031a1760201c565b6101e1565b6100fa81604051602401610072919061015f565b6040516020818303038152906040527f41304fac000000000000000000000000000000000000000000000000000000007bffffffffffffffffffffffffffffffffffffffffffffffffffffffff19166020820180517bffffffffffffffffffffffffffffffffffffffffffffffffffffffff83818316178352505050506100fd60201b60201c565b50565b60008151905060006a636f6e736f6c652e6c6f679050602083016000808483855afa5050505050565b600061013182610181565b61013b818561018c565b935061014b81856020860161019d565b610154816101d0565b840191505092915050565b600060208201905081810360008301526101798184610126565b905092915050565b600081519050919050565b600082825260208201905092915050565b60005b838110156101bb5780820151818401526020810190506101a0565b838111156101ca576000848401525b50505050565b6000601f19601f8301169050919050565b610971806101f06000396000f3fe608060405234801561001057600080fd5b50600436106100415760003560e01c80631d761d47146100465780633f8f12c61461006457806387c79d1d14610080575b600080fd5b61004e61009e565b60405161005b91906106e4565b60405180910390f35b61007e600480360381019061007991906104e7565b6100aa565b005b6100886101c9565b60405161009591906106a0565b60405180910390f35b60008080549050905090565b600060405180606001604052803373ffffffffffffffffffffffffffffffffffffffff16815260200183815260200142815250908060018154018082558091505060019003906000526020600020906003020160009091909190915060008201518160000160006101000a81548173ffffffffffffffffffffffffffffffffffffffff021916908373ffffffffffffffffffffffffffffffffffffffff16021790555060208201518160010190805190602001906101699291906103dc565b506040820151816002015550503373ffffffffffffffffffffffffffffffffffffffff167ff3bb4a59f9a41b07650fa6eb0aaaf8f6e78fe9a712e0c0989ee060358403a89c42836040516101be9291906106ff565b60405180910390a250565b60606000805480602002602001604051908101604052809291908181526020016000905b8282101561031157838290600052602060002090600302016040518060600160405290816000820160009054906101000a900473ffffffffffffffffffffffffffffffffffffffff1673ffffffffffffffffffffffffffffffffffffffff1673ffffffffffffffffffffffffffffffffffffffff16815260200160018201805461027690610869565b80601f01602080910402602001604051908101604052809291908181526020018280546102a290610869565b80156102ef5780601f106102c4576101008083540402835291602001916102ef565b820191906000526020600020905b8154815290600101906020018083116102d257829003601f168201915b50505050508152602001600282015481525050815260200190600101906101ed565b50505050905090565b6103b08160405160240161032e91906106c2565b6040516020818303038152906040527f41304fac000000000000000000000000000000000000000000000000000000007bffffffffffffffffffffffffffffffffffffffffffffffffffffffff19166020820180517bffffffffffffffffffffffffffffffffffffffffffffffffffffffff83818316178352505050506103b3565b50565b60008151905060006a636f6e736f6c652e6c6f679050602083016000808483855afa5050505050565b8280546103e890610869565b90600052602060002090601f01602090048101928261040a5760008555610451565b82601f1061042357805160ff1916838001178555610451565b82800160010185558215610451579182015b82811115610450578251825591602001919060010190610435565b5b50905061045e9190610462565b5090565b5b8082111561047b576000816000905550600101610463565b5090565b600061049261048d84610754565b61072f565b9050828152602081018484840111156104aa57600080fd5b6104b5848285610827565b509392505050565b600082601f8301126104ce57600080fd5b81356104de84826020860161047f565b91505092915050565b6000602082840312156104f957600080fd5b600082013567ffffffffffffffff81111561051357600080fd5b61051f848285016104bd565b91505092915050565b60006105348383610632565b905092915050565b610545816107eb565b82525050565b600061055682610795565b61056081856107b8565b93508360208202850161057285610785565b8060005b858110156105ae578484038952815161058f8582610528565b945061059a836107ab565b925060208a01995050600181019050610576565b50829750879550505050505092915050565b60006105cb826107a0565b6105d581856107c9565b93506105e5818560208601610836565b6105ee8161092a565b840191505092915050565b6000610604826107a0565b61060e81856107da565b935061061e818560208601610836565b6106278161092a565b840191505092915050565b600060608301600083015161064a600086018261053c565b506020830151848203602086015261066282826105c0565b91505060408301516106776040860182610682565b508091505092915050565b61068b8161081d565b82525050565b61069a8161081d565b82525050565b600060208201905081810360008301526106ba818461054b565b905092915050565b600060208201905081810360008301526106dc81846105f9565b905092915050565b60006020820190506106f96000830184610691565b92915050565b60006040820190506107146000830185610691565b818103602083015261072681846105f9565b90509392505050565b600061073961074a565b9050610745828261089b565b919050565b6000604051905090565b600067ffffffffffffffff82111561076f5761076e6108fb565b5b6107788261092a565b9050602081019050919050565b6000819050602082019050919050565b600081519050919050565b600081519050919050565b6000602082019050919050565b600082825260208201905092915050565b600082825260208201905092915050565b600082825260208201905092915050565b60006107f6826107fd565b9050919050565b600073ffffffffffffffffffffffffffffffffffffffff82169050919050565b6000819050919050565b82818337600083830152505050565b60005b83811015610854578082015181840152602081019050610839565b83811115610863576000848401525b50505050565b6000600282049050600182168061088157607f821691505b60208210811415610895576108946108cc565b5b50919050565b6108a48261092a565b810181811067ffffffffffffffff821117156108c3576108c26108fb565b5b80604052505050565b7f4e487b7100000000000000000000000000000000000000000000000000000000600052602260045260246000fd5b7f4e487b7100000000000000000000000000000000000000000000000000000000600052604160045260246000fd5b6000601f19601f830116905091905056fea2646970667358221220be7232cef03c788f9f347de26629e4f1f194714d2b10b7d363d9d96f5e1b7dea64736f6c63430008040033",
  "linkReferences": {},
  "deployedLinkReferences": {}
}