{
  "_format": "hh-sol-artifact-1",
  "contractName": "WavePortal",
  "sourceName": "contracts/WavePortal.sol",
  "abi": [
    {
      "inputs": [],
      "stateMutability": "nonpayable",
      "type": "constructor"
    },
    {
      "inputs": [
        {
          "internalType": "uint256",
          "name": "",
          "type": "uint256"
        }
      ],
      "name": "colors",
      "outputs": [
        {
          "internalType": "string",
          "name": "",
          "type": "string"
        }
      ],
      "stateMutability": "view",
      "type": "function"
    },
    {
      "inputs": [],
      "name": "getColors",
      "outputs": [
        {
          "internalType": "string[]",
          "name": "",
          "type": "string[]"
        }
      ],
      "stateMutability": "view",
      "type": "function"
    },
    {
      "inputs": [],
      "name": "getTotalColors",
      "outputs": [
        {
          "internalType": "uint256",
          "name": "",
          "type": "uint256"
        }
      ],
      "stateMutability": "view",
      "type": "function"
    },
    {
      "inputs": [
        {
          "internalType": "string",
          "name": "color",
          "type": "string"
        }
      ],
      "name": "registerColor",
      "outputs": [],
      "stateMutability": "nonpayable",
      "type": "function"
    }
  ],
  "bytecode": "0x608060405234801561001057600080fd5b506100596040518060400160405280601d81526020017f48656c6c6f2c20576f726c6421204920616d206120636f6e747261637400000081525061005e60201b6102a91760201c565b6101e1565b6100fa81604051602401610072919061015f565b6040516020818303038152906040527f41304fac000000000000000000000000000000000000000000000000000000007bffffffffffffffffffffffffffffffffffffffffffffffffffffffff19166020820180517bffffffffffffffffffffffffffffffffffffffffffffffffffffffff83818316178352505050506100fd60201b60201c565b50565b60008151905060006a636f6e736f6c652e6c6f679050602083016000808483855afa5050505050565b600061013182610181565b61013b818561018c565b935061014b81856020860161019d565b610154816101d0565b840191505092915050565b600060208201905081810360008301526101798184610126565b905092915050565b600081519050919050565b600082825260208201905092915050565b60005b838110156101bb5780820151818401526020810190506101a0565b838111156101ca576000848401525b50505050565b6000601f19601f8301169050919050565b610885806101f06000396000f3fe608060405234801561001057600080fd5b506004361061004c5760003560e01c80631d761d47146100515780633f8f12c61461006f57806387c79d1d1461008b578063bd11f69d146100a9575b600080fd5b6100596100d9565b6040516100669190610643565b60405180910390f35b6100896004803603810190610084919061048b565b6100e5565b005b610093610124565b6040516100a091906105ff565b60405180910390f35b6100c360048036038101906100be91906104cc565b6101fd565b6040516100d09190610621565b60405180910390f35b60008080549050905090565b60008190806001815401808255809150506001900390600052602060002001600090919091909150908051906020019061012092919061036b565b5050565b60606000805480602002602001604051908101604052809291908181526020016000905b828210156101f457838290600052602060002001805461016790610766565b80601f016020809104026020016040519081016040528092919081815260200182805461019390610766565b80156101e05780601f106101b5576101008083540402835291602001916101e0565b820191906000526020600020905b8154815290600101906020018083116101c357829003601f168201915b505050505081526020019060010190610148565b50505050905090565b6000818154811061020d57600080fd5b90600052602060002001600091509050805461022890610766565b80601f016020809104026020016040519081016040528092919081815260200182805461025490610766565b80156102a15780601f10610276576101008083540402835291602001916102a1565b820191906000526020600020905b81548152906001019060200180831161028457829003601f168201915b505050505081565b61033f816040516024016102bd9190610621565b6040516020818303038152906040527f41304fac000000000000000000000000000000000000000000000000000000007bffffffffffffffffffffffffffffffffffffffffffffffffffffffff19166020820180517bffffffffffffffffffffffffffffffffffffffffffffffffffffffff8381831617835250505050610342565b50565b60008151905060006a636f6e736f6c652e6c6f679050602083016000808483855afa5050505050565b82805461037790610766565b90600052602060002090601f01602090048101928261039957600085556103e0565b82601f106103b257805160ff19168380011785556103e0565b828001600101855582156103e0579182015b828111156103df5782518255916020019190600101906103c4565b5b5090506103ed91906103f1565b5090565b5b8082111561040a5760008160009055506001016103f2565b5090565b600061042161041c84610683565b61065e565b90508281526020810184848401111561043957600080fd5b610444848285610724565b509392505050565b600082601f83011261045d57600080fd5b813561046d84826020860161040e565b91505092915050565b60008135905061048581610838565b92915050565b60006020828403121561049d57600080fd5b600082013567ffffffffffffffff8111156104b757600080fd5b6104c38482850161044c565b91505092915050565b6000602082840312156104de57600080fd5b60006104ec84828501610476565b91505092915050565b6000610501838361057e565b905092915050565b6000610514826106c4565b61051e81856106e7565b935083602082028501610530856106b4565b8060005b8581101561056c578484038952815161054d85826104f5565b9450610558836106da565b925060208a01995050600181019050610534565b50829750879550505050505092915050565b6000610589826106cf565b61059381856106f8565b93506105a3818560208601610733565b6105ac81610827565b840191505092915050565b60006105c2826106cf565b6105cc8185610709565b93506105dc818560208601610733565b6105e581610827565b840191505092915050565b6105f98161071a565b82525050565b600060208201905081810360008301526106198184610509565b905092915050565b6000602082019050818103600083015261063b81846105b7565b905092915050565b600060208201905061065860008301846105f0565b92915050565b6000610668610679565b90506106748282610798565b919050565b6000604051905090565b600067ffffffffffffffff82111561069e5761069d6107f8565b5b6106a782610827565b9050602081019050919050565b6000819050602082019050919050565b600081519050919050565b600081519050919050565b6000602082019050919050565b600082825260208201905092915050565b600082825260208201905092915050565b600082825260208201905092915050565b6000819050919050565b82818337600083830152505050565b60005b83811015610751578082015181840152602081019050610736565b83811115610760576000848401525b50505050565b6000600282049050600182168061077e57607f821691505b60208210811415610792576107916107c9565b5b50919050565b6107a182610827565b810181811067ffffffffffffffff821117156107c0576107bf6107f8565b5b80604052505050565b7f4e487b7100000000000000000000000000000000000000000000000000000000600052602260045260246000fd5b7f4e487b7100000000000000000000000000000000000000000000000000000000600052604160045260246000fd5b6000601f19601f8301169050919050565b6108418161071a565b811461084c57600080fd5b5056fea2646970667358221220a3e01e41a36aca711ecbecf9de6464e8f57db4dbd884c4f557f7c3c3ffc9415664736f6c63430008040033",
  "linkReferences": {},
  "deployedLinkReferences": {}
}