{
  "_format": "hh-sol-artifact-1",
  "contractName": "WavePortal",
  "sourceName": "contracts/WavePortal.sol",
  "abi": [
    {
      "inputs": [],
      "stateMutability": "payable",
      "type": "constructor"
    },
    {
      "anonymous": false,
      "inputs": [
        {
          "indexed": true,
          "internalType": "address",
          "name": "from",
          "type": "address"
        },
        {
          "indexed": false,
          "internalType": "uint256",
          "name": "timestamp",
          "type": "uint256"
        },
        {
          "indexed": false,
          "internalType": "string",
          "name": "color",
          "type": "string"
        }
      ],
      "name": "NewVote",
      "type": "event"
    },
    {
      "inputs": [],
      "name": "getColors",
      "outputs": [
        {
          "components": [
            {
              "internalType": "address",
              "name": "user",
              "type": "address"
            },
            {
              "internalType": "string",
              "name": "color",
              "type": "string"
            },
            {
              "internalType": "uint256",
              "name": "timestamp",
              "type": "uint256"
            }
          ],
          "internalType": "struct WavePortal.ColorVote[]",
          "name": "",
          "type": "tuple[]"
        }
      ],
      "stateMutability": "view",
      "type": "function"
    },
    {
      "inputs": [],
      "name": "getTotalColors",
      "outputs": [
        {
          "internalType": "uint256",
          "name": "",
          "type": "uint256"
        }
      ],
      "stateMutability": "view",
      "type": "function"
    },
    {
      "inputs": [
        {
          "internalType": "string",
          "name": "color",
          "type": "string"
        }
      ],
      "name": "registerColor",
      "outputs": [],
      "stateMutability": "nonpayable",
      "type": "function"
    }
  ],
  "bytecode": "0x608060405261004c6040518060400160405280601d81526020017f48656c6c6f2c20576f726c6421204920616d206120636f6e747261637400000081525061005160201b6104161760201c565b6101d4565b6100ed816040516024016100659190610152565b6040516020818303038152906040527f41304fac000000000000000000000000000000000000000000000000000000007bffffffffffffffffffffffffffffffffffffffffffffffffffffffff19166020820180517bffffffffffffffffffffffffffffffffffffffffffffffffffffffff83818316178352505050506100f060201b60201c565b50565b60008151905060006a636f6e736f6c652e6c6f679050602083016000808483855afa5050505050565b600061012482610174565b61012e818561017f565b935061013e818560208601610190565b610147816101c3565b840191505092915050565b6000602082019050818103600083015261016c8184610119565b905092915050565b600081519050919050565b600082825260208201905092915050565b60005b838110156101ae578082015181840152602081019050610193565b838111156101bd576000848401525b50505050565b6000601f19601f8301169050919050565b610bd780620001e46000396000f3fe608060405234801561001057600080fd5b50600436106100415760003560e01c80631d761d47146100465780633f8f12c61461006457806387c79d1d14610080575b600080fd5b61004e61009e565b60405161005b919061089e565b60405180910390f35b61007e600480360381019061007991906105e3565b6100aa565b005b6100886102c5565b604051610095919061081a565b60405180910390f35b60008080549050905090565b600060405180606001604052803373ffffffffffffffffffffffffffffffffffffffff16815260200183815260200142815250908060018154018082558091505060019003906000526020600020906003020160009091909190915060008201518160000160006101000a81548173ffffffffffffffffffffffffffffffffffffffff021916908373ffffffffffffffffffffffffffffffffffffffff16021790555060208201518160010190805190602001906101699291906104d8565b506040820151816002015550503373ffffffffffffffffffffffffffffffffffffffff167ff3bb4a59f9a41b07650fa6eb0aaaf8f6e78fe9a712e0c0989ee060358403a89c42836040516101be9291906108b9565b60405180910390a26000655af3107a4000905047811115610214576040517f08c379a000000000000000000000000000000000000000000000000000000000815260040161020b9061087e565b60405180910390fd5b60003373ffffffffffffffffffffffffffffffffffffffff168260405161023a90610805565b60006040518083038185875af1925050503d8060008114610277576040519150601f19603f3d011682016040523d82523d6000602084013e61027c565b606091505b50509050806102c0576040517f08c379a00000000000000000000000000000000000000000000000000000000081526004016102b79061085e565b60405180910390fd5b505050565b60606000805480602002602001604051908101604052809291908181526020016000905b8282101561040d57838290600052602060002090600302016040518060600160405290816000820160009054906101000a900473ffffffffffffffffffffffffffffffffffffffff1673ffffffffffffffffffffffffffffffffffffffff1673ffffffffffffffffffffffffffffffffffffffff16815260200160018201805461037290610a2e565b80601f016020809104026020016040519081016040528092919081815260200182805461039e90610a2e565b80156103eb5780601f106103c0576101008083540402835291602001916103eb565b820191906000526020600020905b8154815290600101906020018083116103ce57829003601f168201915b50505050508152602001600282015481525050815260200190600101906102e9565b50505050905090565b6104ac8160405160240161042a919061083c565b6040516020818303038152906040527f41304fac000000000000000000000000000000000000000000000000000000007bffffffffffffffffffffffffffffffffffffffffffffffffffffffff19166020820180517bffffffffffffffffffffffffffffffffffffffffffffffffffffffff83818316178352505050506104af565b50565b60008151905060006a636f6e736f6c652e6c6f679050602083016000808483855afa5050505050565b8280546104e490610a2e565b90600052602060002090601f016020900481019282610506576000855561054d565b82601f1061051f57805160ff191683800117855561054d565b8280016001018555821561054d579182015b8281111561054c578251825591602001919060010190610531565b5b50905061055a919061055e565b5090565b5b8082111561057757600081600090555060010161055f565b5090565b600061058e6105898461090e565b6108e9565b9050828152602081018484840111156105a657600080fd5b6105b18482856109ec565b509392505050565b600082601f8301126105ca57600080fd5b81356105da84826020860161057b565b91505092915050565b6000602082840312156105f557600080fd5b600082013567ffffffffffffffff81111561060f57600080fd5b61061b848285016105b9565b91505092915050565b60006106308383610797565b905092915050565b610641816109b0565b82525050565b60006106528261094f565b61065c8185610972565b93508360208202850161066e8561093f565b8060005b858110156106aa578484038952815161068b8582610624565b945061069683610965565b925060208a01995050600181019050610672565b50829750879550505050505092915050565b60006106c78261095a565b6106d1818561098e565b93506106e18185602086016109fb565b6106ea81610aef565b840191505092915050565b60006107008261095a565b61070a818561099f565b935061071a8185602086016109fb565b61072381610aef565b840191505092915050565b600061073b60268361099f565b915061074682610b00565b604082019050919050565b600061075e600083610983565b915061076982610b4f565b600082019050919050565b600061078160338361099f565b915061078c82610b52565b604082019050919050565b60006060830160008301516107af6000860182610638565b50602083015184820360208601526107c782826106bc565b91505060408301516107dc60408601826107e7565b508091505092915050565b6107f0816109e2565b82525050565b6107ff816109e2565b82525050565b600061081082610751565b9150819050919050565b600060208201905081810360008301526108348184610647565b905092915050565b6000602082019050818103600083015261085681846106f5565b905092915050565b600060208201905081810360008301526108778161072e565b9050919050565b6000602082019050818103600083015261089781610774565b9050919050565b60006020820190506108b360008301846107f6565b92915050565b60006040820190506108ce60008301856107f6565b81810360208301526108e081846106f5565b90509392505050565b60006108f3610904565b90506108ff8282610a60565b919050565b6000604051905090565b600067ffffffffffffffff82111561092957610928610ac0565b5b61093282610aef565b9050602081019050919050565b6000819050602082019050919050565b600081519050919050565b600081519050919050565b6000602082019050919050565b600082825260208201905092915050565b600081905092915050565b600082825260208201905092915050565b600082825260208201905092915050565b60006109bb826109c2565b9050919050565b600073ffffffffffffffffffffffffffffffffffffffff82169050919050565b6000819050919050565b82818337600083830152505050565b60005b83811015610a195780820151818401526020810190506109fe565b83811115610a28576000848401525b50505050565b60006002820490506001821680610a4657607f821691505b60208210811415610a5a57610a59610a91565b5b50919050565b610a6982610aef565b810181811067ffffffffffffffff82111715610a8857610a87610ac0565b5b80604052505050565b7f4e487b7100000000000000000000000000000000000000000000000000000000600052602260045260246000fd5b7f4e487b7100000000000000000000000000000000000000000000000000000000600052604160045260246000fd5b6000601f19601f8301169050919050565b7f4661696c656420746f207769746864726177206d6f6e65792066726f6d20636f60008201527f6e74726163740000000000000000000000000000000000000000000000000000602082015250565b50565b7f547279696e6720746f207769746864726177206d6f7265206d6f6e657920746860008201527f616e2074686520636f6e7472616374206861730000000000000000000000000060208201525056fea26469706673582212206a5ac6a1e61d6fe3ed35ed297fc7451850bb952d70b840fbe411c32e1666cf2164736f6c63430008040033",
  "linkReferences": {},
  "deployedLinkReferences": {}
}