{
  "_format": "hh-sol-artifact-1",
  "contractName": "WavePortal",
  "sourceName": "contracts/WavePortal.sol",
  "abi": [
    {
      "inputs": [],
      "stateMutability": "payable",
      "type": "constructor"
    },
    {
      "anonymous": false,
      "inputs": [
        {
          "indexed": true,
          "internalType": "address",
          "name": "from",
          "type": "address"
        },
        {
          "indexed": false,
          "internalType": "uint256",
          "name": "timestamp",
          "type": "uint256"
        },
        {
          "indexed": false,
          "internalType": "string",
          "name": "color",
          "type": "string"
        }
      ],
      "name": "NewVote",
      "type": "event"
    },
    {
      "inputs": [],
      "name": "getColors",
      "outputs": [
        {
          "components": [
            {
              "internalType": "address",
              "name": "user",
              "type": "address"
            },
            {
              "internalType": "string",
              "name": "color",
              "type": "string"
            },
            {
              "internalType": "uint256",
              "name": "timestamp",
              "type": "uint256"
            }
          ],
          "internalType": "struct WavePortal.ColorVote[]",
          "name": "",
          "type": "tuple[]"
        }
      ],
      "stateMutability": "view",
      "type": "function"
    },
    {
      "inputs": [],
      "name": "getTotalColors",
      "outputs": [
        {
          "internalType": "uint256",
          "name": "",
          "type": "uint256"
        }
      ],
      "stateMutability": "view",
      "type": "function"
    },
    {
      "inputs": [
        {
          "internalType": "address",
          "name": "",
          "type": "address"
        }
      ],
      "name": "lastWavedAt",
      "outputs": [
        {
          "internalType": "uint256",
          "name": "",
          "type": "uint256"
        }
      ],
      "stateMutability": "view",
      "type": "function"
    },
    {
      "inputs": [
        {
          "internalType": "string",
          "name": "color",
          "type": "string"
        }
      ],
      "name": "registerColor",
      "outputs": [],
      "stateMutability": "nonpayable",
      "type": "function"
    }
  ],
  "bytecode": "0x60806040526200004f6040518060400160405280601d81526020017f48656c6c6f2c20576f726c6421204920616d206120636f6e74726163740000008152506200007760201b620005b31760201c565b606444426200005f9190620001c4565b6200006b919062000261565b60008190555062000308565b62000117816040516024016200008e919062000184565b6040516020818303038152906040527f41304fac000000000000000000000000000000000000000000000000000000007bffffffffffffffffffffffffffffffffffffffffffffffffffffffff19166020820180517bffffffffffffffffffffffffffffffffffffffffffffffffffffffff83818316178352505050506200011a60201b60201c565b50565b60008151905060006a636f6e736f6c652e6c6f679050602083016000808483855afa5050505050565b60006200015082620001a8565b6200015c8185620001b3565b93506200016e8185602086016200022b565b6200017981620002f7565b840191505092915050565b60006020820190508181036000830152620001a0818462000143565b905092915050565b600081519050919050565b600082825260208201905092915050565b6000620001d18262000221565b9150620001de8362000221565b9250827fffffffffffffffffffffffffffffffffffffffffffffffffffffffffffffffff0382111562000216576200021562000299565b5b828201905092915050565b6000819050919050565b60005b838110156200024b5780820151818401526020810190506200022e565b838111156200025b576000848401525b50505050565b60006200026e8262000221565b91506200027b8362000221565b9250826200028e576200028d620002c8565b5b828206905092915050565b7f4e487b7100000000000000000000000000000000000000000000000000000000600052601160045260246000fd5b7f4e487b7100000000000000000000000000000000000000000000000000000000600052601260045260246000fd5b6000601f19601f8301169050919050565b610fe680620003186000396000f3fe608060405234801561001057600080fd5b506004361061004c5760003560e01c80631d761d47146100515780633f8f12c61461006f57806387c79d1d1461008b578063a42a4663146100a9575b600080fd5b6100596100d9565b6040516100669190610b88565b60405180910390f35b6100896004803603810190610084919061085a565b6100e6565b005b61009361044a565b6040516100a09190610ab4565b60405180910390f35b6100c360048036038101906100be9190610831565b61059b565b6040516100d09190610b88565b60405180910390f35b6000600180549050905090565b42610384600260003373ffffffffffffffffffffffffffffffffffffffff1673ffffffffffffffffffffffffffffffffffffffff168152602001908152602001600020546101349190610c9a565b10610174576040517f08c379a000000000000000000000000000000000000000000000000000000000815260040161016b90610b68565b60405180910390fd5b42600260003373ffffffffffffffffffffffffffffffffffffffff1673ffffffffffffffffffffffffffffffffffffffff16815260200190815260200160002081905550600160405180606001604052803373ffffffffffffffffffffffffffffffffffffffff16815260200183815260200142815250908060018154018082558091505060019003906000526020600020906003020160009091909190915060008201518160000160006101000a81548173ffffffffffffffffffffffffffffffffffffffff021916908373ffffffffffffffffffffffffffffffffffffffff1602179055506020820151816001019080519060200190610277929190610711565b50604082015181600201555050606460005442446102959190610c9a565b61029f9190610c9a565b6102a99190610dd1565b6000819055506102f06040518060400160405280601781526020017f72616e646f6d206e756d6265722067656e65726174656400000000000000000081525060005461064c565b6019600054116103f7576000655af3107a4000905047811115610348576040517f08c379a000000000000000000000000000000000000000000000000000000000815260040161033f90610b48565b60405180910390fd5b60003373ffffffffffffffffffffffffffffffffffffffff168260405161036e90610a9f565b60006040518083038185875af1925050503d80600081146103ab576040519150601f19603f3d011682016040523d82523d6000602084013e6103b0565b606091505b50509050806103f4576040517f08c379a00000000000000000000000000000000000000000000000000000000081526004016103eb90610b28565b60405180910390fd5b50505b3373ffffffffffffffffffffffffffffffffffffffff167ff3bb4a59f9a41b07650fa6eb0aaaf8f6e78fe9a712e0c0989ee060358403a89c428360405161043f929190610ba3565b60405180910390a250565b60606001805480602002602001604051908101604052809291908181526020016000905b8282101561059257838290600052602060002090600302016040518060600160405290816000820160009054906101000a900473ffffffffffffffffffffffffffffffffffffffff1673ffffffffffffffffffffffffffffffffffffffff1673ffffffffffffffffffffffffffffffffffffffff1681526020016001820180546104f790610d6e565b80601f016020809104026020016040519081016040528092919081815260200182805461052390610d6e565b80156105705780601f1061054557610100808354040283529160200191610570565b820191906000526020600020905b81548152906001019060200180831161055357829003601f168201915b505050505081526020016002820154815250508152602001906001019061046e565b50505050905090565b60026020528060005260406000206000915090505481565b610649816040516024016105c79190610ad6565b6040516020818303038152906040527f41304fac000000000000000000000000000000000000000000000000000000007bffffffffffffffffffffffffffffffffffffffffffffffffffffffff19166020820180517bffffffffffffffffffffffffffffffffffffffffffffffffffffffff83818316178352505050506106e8565b50565b6106e48282604051602401610662929190610af8565b6040516020818303038152906040527f9710a9d0000000000000000000000000000000000000000000000000000000007bffffffffffffffffffffffffffffffffffffffffffffffffffffffff19166020820180517bffffffffffffffffffffffffffffffffffffffffffffffffffffffff83818316178352505050506106e8565b5050565b60008151905060006a636f6e736f6c652e6c6f679050602083016000808483855afa5050505050565b82805461071d90610d6e565b90600052602060002090601f01602090048101928261073f5760008555610786565b82601f1061075857805160ff1916838001178555610786565b82800160010185558215610786579182015b8281111561078557825182559160200191906001019061076a565b5b5090506107939190610797565b5090565b5b808211156107b0576000816000905550600101610798565b5090565b60006107c76107c284610bf8565b610bd3565b9050828152602081018484840111156107df57600080fd5b6107ea848285610d2c565b509392505050565b60008135905061080181610f99565b92915050565b600082601f83011261081857600080fd5b81356108288482602086016107b4565b91505092915050565b60006020828403121561084357600080fd5b6000610851848285016107f2565b91505092915050565b60006020828403121561086c57600080fd5b600082013567ffffffffffffffff81111561088657600080fd5b61089284828501610807565b91505092915050565b60006108a78383610a31565b905092915050565b6108b881610cf0565b82525050565b60006108c982610c39565b6108d38185610c5c565b9350836020820285016108e585610c29565b8060005b858110156109215784840389528151610902858261089b565b945061090d83610c4f565b925060208a019950506001810190506108e9565b50829750879550505050505092915050565b600061093e82610c44565b6109488185610c78565b9350610958818560208601610d3b565b61096181610ebe565b840191505092915050565b600061097782610c44565b6109818185610c89565b9350610991818560208601610d3b565b61099a81610ebe565b840191505092915050565b60006109b2602683610c89565b91506109bd82610ecf565b604082019050919050565b60006109d5600083610c6d565b91506109e082610f1e565b600082019050919050565b60006109f8603383610c89565b9150610a0382610f21565b604082019050919050565b6000610a1b600883610c89565b9150610a2682610f70565b602082019050919050565b6000606083016000830151610a4960008601826108af565b5060208301518482036020860152610a618282610933565b9150506040830151610a766040860182610a81565b508091505092915050565b610a8a81610d22565b82525050565b610a9981610d22565b82525050565b6000610aaa826109c8565b9150819050919050565b60006020820190508181036000830152610ace81846108be565b905092915050565b60006020820190508181036000830152610af0818461096c565b905092915050565b60006040820190508181036000830152610b12818561096c565b9050610b216020830184610a90565b9392505050565b60006020820190508181036000830152610b41816109a5565b9050919050565b60006020820190508181036000830152610b61816109eb565b9050919050565b60006020820190508181036000830152610b8181610a0e565b9050919050565b6000602082019050610b9d6000830184610a90565b92915050565b6000604082019050610bb86000830185610a90565b8181036020830152610bca818461096c565b90509392505050565b6000610bdd610bee565b9050610be98282610da0565b919050565b6000604051905090565b600067ffffffffffffffff821115610c1357610c12610e8f565b5b610c1c82610ebe565b9050602081019050919050565b6000819050602082019050919050565b600081519050919050565b600081519050919050565b6000602082019050919050565b600082825260208201905092915050565b600081905092915050565b600082825260208201905092915050565b600082825260208201905092915050565b6000610ca582610d22565b9150610cb083610d22565b9250827fffffffffffffffffffffffffffffffffffffffffffffffffffffffffffffffff03821115610ce557610ce4610e02565b5b828201905092915050565b6000610cfb82610d02565b9050919050565b600073ffffffffffffffffffffffffffffffffffffffff82169050919050565b6000819050919050565b82818337600083830152505050565b60005b83811015610d59578082015181840152602081019050610d3e565b83811115610d68576000848401525b50505050565b60006002820490506001821680610d8657607f821691505b60208210811415610d9a57610d99610e60565b5b50919050565b610da982610ebe565b810181811067ffffffffffffffff82111715610dc857610dc7610e8f565b5b80604052505050565b6000610ddc82610d22565b9150610de783610d22565b925082610df757610df6610e31565b5b828206905092915050565b7f4e487b7100000000000000000000000000000000000000000000000000000000600052601160045260246000fd5b7f4e487b7100000000000000000000000000000000000000000000000000000000600052601260045260246000fd5b7f4e487b7100000000000000000000000000000000000000000000000000000000600052602260045260246000fd5b7f4e487b7100000000000000000000000000000000000000000000000000000000600052604160045260246000fd5b6000601f19601f8301169050919050565b7f4661696c656420746f207769746864726177206d6f6e65792066726f6d20636f60008201527f6e74726163740000000000000000000000000000000000000000000000000000602082015250565b50565b7f547279696e6720746f207769746864726177206d6f7265206d6f6e657920746860008201527f616e2074686520636f6e74726163742068617300000000000000000000000000602082015250565b7f576169742031356d000000000000000000000000000000000000000000000000600082015250565b610fa281610cf0565b8114610fad57600080fd5b5056fea26469706673582212209dca338fe954fafa5b9d288fc551f9f317cbe2c19f6e0d2e88de8ac41d7f3b6664736f6c63430008040033",
  "linkReferences": {},
  "deployedLinkReferences": {}
}