{
  "_format": "hh-sol-artifact-1",
  "contractName": "WavePortal",
  "sourceName": "contracts/WavePortal.sol",
  "abi": [
    {
      "inputs": [],
      "stateMutability": "payable",
      "type": "constructor"
    },
    {
      "anonymous": false,
      "inputs": [
        {
          "indexed": true,
          "internalType": "address",
          "name": "from",
          "type": "address"
        },
        {
          "indexed": false,
          "internalType": "uint256",
          "name": "timestamp",
          "type": "uint256"
        },
        {
          "indexed": false,
          "internalType": "string",
          "name": "color",
          "type": "string"
        }
      ],
      "name": "NewVote",
      "type": "event"
    },
    {
      "inputs": [],
      "name": "getColors",
      "outputs": [
        {
          "components": [
            {
              "internalType": "address",
              "name": "user",
              "type": "address"
            },
            {
              "internalType": "string",
              "name": "color",
              "type": "string"
            },
            {
              "internalType": "uint256",
              "name": "timestamp",
              "type": "uint256"
            }
          ],
          "internalType": "struct WavePortal.ColorVote[]",
          "name": "",
          "type": "tuple[]"
        }
      ],
      "stateMutability": "view",
      "type": "function"
    },
    {
      "inputs": [],
      "name": "getTotalColors",
      "outputs": [
        {
          "internalType": "uint256",
          "name": "",
          "type": "uint256"
        }
      ],
      "stateMutability": "view",
      "type": "function"
    },
    {
      "inputs": [
        {
          "internalType": "address",
          "name": "",
          "type": "address"
        }
      ],
      "name": "lastWavedAt",
      "outputs": [
        {
          "internalType": "uint256",
          "name": "",
          "type": "uint256"
        }
      ],
      "stateMutability": "view",
      "type": "function"
    },
    {
      "inputs": [
        {
          "internalType": "string",
          "name": "color",
          "type": "string"
        }
      ],
      "name": "registerColor",
      "outputs": [],
      "stateMutability": "nonpayable",
      "type": "function"
    }
  ],
  "bytecode": "0x60806040526200004f6040518060400160405280601d81526020017f48656c6c6f2c20576f726c6421204920616d206120636f6e74726163740000008152506200007760201b620005b21760201c565b606444426200005f9190620001c4565b6200006b919062000261565b60008190555062000308565b62000117816040516024016200008e919062000184565b6040516020818303038152906040527f41304fac000000000000000000000000000000000000000000000000000000007bffffffffffffffffffffffffffffffffffffffffffffffffffffffff19166020820180517bffffffffffffffffffffffffffffffffffffffffffffffffffffffff83818316178352505050506200011a60201b60201c565b50565b60008151905060006a636f6e736f6c652e6c6f679050602083016000808483855afa5050505050565b60006200015082620001a8565b6200015c8185620001b3565b93506200016e8185602086016200022b565b6200017981620002f7565b840191505092915050565b60006020820190508181036000830152620001a0818462000143565b905092915050565b600081519050919050565b600082825260208201905092915050565b6000620001d18262000221565b9150620001de8362000221565b9250827fffffffffffffffffffffffffffffffffffffffffffffffffffffffffffffffff0382111562000216576200021562000299565b5b828201905092915050565b6000819050919050565b60005b838110156200024b5780820151818401526020810190506200022e565b838111156200025b576000848401525b50505050565b60006200026e8262000221565b91506200027b8362000221565b9250826200028e576200028d620002c8565b5b828206905092915050565b7f4e487b7100000000000000000000000000000000000000000000000000000000600052601160045260246000fd5b7f4e487b7100000000000000000000000000000000000000000000000000000000600052601260045260246000fd5b6000601f19601f8301169050919050565b610fe580620003186000396000f3fe608060405234801561001057600080fd5b506004361061004c5760003560e01c80631d761d47146100515780633f8f12c61461006f57806387c79d1d1461008b578063a42a4663146100a9575b600080fd5b6100596100d9565b6040516100669190610b87565b60405180910390f35b61008960048036038101906100849190610859565b6100e6565b005b610093610449565b6040516100a09190610ab3565b60405180910390f35b6100c360048036038101906100be9190610830565b61059a565b6040516100d09190610b87565b60405180910390f35b6000600180549050905090565b42601e600260003373ffffffffffffffffffffffffffffffffffffffff1673ffffffffffffffffffffffffffffffffffffffff168152602001908152602001600020546101339190610c99565b10610173576040517f08c379a000000000000000000000000000000000000000000000000000000000815260040161016a90610b67565b60405180910390fd5b42600260003373ffffffffffffffffffffffffffffffffffffffff1673ffffffffffffffffffffffffffffffffffffffff16815260200190815260200160002081905550600160405180606001604052803373ffffffffffffffffffffffffffffffffffffffff16815260200183815260200142815250908060018154018082558091505060019003906000526020600020906003020160009091909190915060008201518160000160006101000a81548173ffffffffffffffffffffffffffffffffffffffff021916908373ffffffffffffffffffffffffffffffffffffffff1602179055506020820151816001019080519060200190610276929190610710565b50604082015181600201555050606460005442446102949190610c99565b61029e9190610c99565b6102a89190610dd0565b6000819055506102ef6040518060400160405280601781526020017f72616e646f6d206e756d6265722067656e65726174656400000000000000000081525060005461064b565b6019600054116103f6576000655af3107a4000905047811115610347576040517f08c379a000000000000000000000000000000000000000000000000000000000815260040161033e90610b47565b60405180910390fd5b60003373ffffffffffffffffffffffffffffffffffffffff168260405161036d90610a9e565b60006040518083038185875af1925050503d80600081146103aa576040519150601f19603f3d011682016040523d82523d6000602084013e6103af565b606091505b50509050806103f3576040517f08c379a00000000000000000000000000000000000000000000000000000000081526004016103ea90610b27565b60405180910390fd5b50505b3373ffffffffffffffffffffffffffffffffffffffff167ff3bb4a59f9a41b07650fa6eb0aaaf8f6e78fe9a712e0c0989ee060358403a89c428360405161043e929190610ba2565b60405180910390a250565b60606001805480602002602001604051908101604052809291908181526020016000905b8282101561059157838290600052602060002090600302016040518060600160405290816000820160009054906101000a900473ffffffffffffffffffffffffffffffffffffffff1673ffffffffffffffffffffffffffffffffffffffff1673ffffffffffffffffffffffffffffffffffffffff1681526020016001820180546104f690610d6d565b80601f016020809104026020016040519081016040528092919081815260200182805461052290610d6d565b801561056f5780601f106105445761010080835404028352916020019161056f565b820191906000526020600020905b81548152906001019060200180831161055257829003601f168201915b505050505081526020016002820154815250508152602001906001019061046d565b50505050905090565b60026020528060005260406000206000915090505481565b610648816040516024016105c69190610ad5565b6040516020818303038152906040527f41304fac000000000000000000000000000000000000000000000000000000007bffffffffffffffffffffffffffffffffffffffffffffffffffffffff19166020820180517bffffffffffffffffffffffffffffffffffffffffffffffffffffffff83818316178352505050506106e7565b50565b6106e38282604051602401610661929190610af7565b6040516020818303038152906040527f9710a9d0000000000000000000000000000000000000000000000000000000007bffffffffffffffffffffffffffffffffffffffffffffffffffffffff19166020820180517bffffffffffffffffffffffffffffffffffffffffffffffffffffffff83818316178352505050506106e7565b5050565b60008151905060006a636f6e736f6c652e6c6f679050602083016000808483855afa5050505050565b82805461071c90610d6d565b90600052602060002090601f01602090048101928261073e5760008555610785565b82601f1061075757805160ff1916838001178555610785565b82800160010185558215610785579182015b82811115610784578251825591602001919060010190610769565b5b5090506107929190610796565b5090565b5b808211156107af576000816000905550600101610797565b5090565b60006107c66107c184610bf7565b610bd2565b9050828152602081018484840111156107de57600080fd5b6107e9848285610d2b565b509392505050565b60008135905061080081610f98565b92915050565b600082601f83011261081757600080fd5b81356108278482602086016107b3565b91505092915050565b60006020828403121561084257600080fd5b6000610850848285016107f1565b91505092915050565b60006020828403121561086b57600080fd5b600082013567ffffffffffffffff81111561088557600080fd5b61089184828501610806565b91505092915050565b60006108a68383610a30565b905092915050565b6108b781610cef565b82525050565b60006108c882610c38565b6108d28185610c5b565b9350836020820285016108e485610c28565b8060005b858110156109205784840389528151610901858261089a565b945061090c83610c4e565b925060208a019950506001810190506108e8565b50829750879550505050505092915050565b600061093d82610c43565b6109478185610c77565b9350610957818560208601610d3a565b61096081610ebd565b840191505092915050565b600061097682610c43565b6109808185610c88565b9350610990818560208601610d3a565b61099981610ebd565b840191505092915050565b60006109b1602683610c88565b91506109bc82610ece565b604082019050919050565b60006109d4600083610c6c565b91506109df82610f1d565b600082019050919050565b60006109f7603383610c88565b9150610a0282610f20565b604082019050919050565b6000610a1a600883610c88565b9150610a2582610f6f565b602082019050919050565b6000606083016000830151610a4860008601826108ae565b5060208301518482036020860152610a608282610932565b9150506040830151610a756040860182610a80565b508091505092915050565b610a8981610d21565b82525050565b610a9881610d21565b82525050565b6000610aa9826109c7565b9150819050919050565b60006020820190508181036000830152610acd81846108bd565b905092915050565b60006020820190508181036000830152610aef818461096b565b905092915050565b60006040820190508181036000830152610b11818561096b565b9050610b206020830184610a8f565b9392505050565b60006020820190508181036000830152610b40816109a4565b9050919050565b60006020820190508181036000830152610b60816109ea565b9050919050565b60006020820190508181036000830152610b8081610a0d565b9050919050565b6000602082019050610b9c6000830184610a8f565b92915050565b6000604082019050610bb76000830185610a8f565b8181036020830152610bc9818461096b565b90509392505050565b6000610bdc610bed565b9050610be88282610d9f565b919050565b6000604051905090565b600067ffffffffffffffff821115610c1257610c11610e8e565b5b610c1b82610ebd565b9050602081019050919050565b6000819050602082019050919050565b600081519050919050565b600081519050919050565b6000602082019050919050565b600082825260208201905092915050565b600081905092915050565b600082825260208201905092915050565b600082825260208201905092915050565b6000610ca482610d21565b9150610caf83610d21565b9250827fffffffffffffffffffffffffffffffffffffffffffffffffffffffffffffffff03821115610ce457610ce3610e01565b5b828201905092915050565b6000610cfa82610d01565b9050919050565b600073ffffffffffffffffffffffffffffffffffffffff82169050919050565b6000819050919050565b82818337600083830152505050565b60005b83811015610d58578082015181840152602081019050610d3d565b83811115610d67576000848401525b50505050565b60006002820490506001821680610d8557607f821691505b60208210811415610d9957610d98610e5f565b5b50919050565b610da882610ebd565b810181811067ffffffffffffffff82111715610dc757610dc6610e8e565b5b80604052505050565b6000610ddb82610d21565b9150610de683610d21565b925082610df657610df5610e30565b5b828206905092915050565b7f4e487b7100000000000000000000000000000000000000000000000000000000600052601160045260246000fd5b7f4e487b7100000000000000000000000000000000000000000000000000000000600052601260045260246000fd5b7f4e487b7100000000000000000000000000000000000000000000000000000000600052602260045260246000fd5b7f4e487b7100000000000000000000000000000000000000000000000000000000600052604160045260246000fd5b6000601f19601f8301169050919050565b7f4661696c656420746f207769746864726177206d6f6e65792066726f6d20636f60008201527f6e74726163740000000000000000000000000000000000000000000000000000602082015250565b50565b7f547279696e6720746f207769746864726177206d6f7265206d6f6e657920746860008201527f616e2074686520636f6e74726163742068617300000000000000000000000000602082015250565b7f576169742031356d000000000000000000000000000000000000000000000000600082015250565b610fa181610cef565b8114610fac57600080fd5b5056fea264697066735822122083fb3111605d437b992cc9676c12f2e77d0e10c37b0125f03bde21a9cb65680364736f6c63430008040033",
  "linkReferences": {},
  "deployedLinkReferences": {}
}